{
  "contractName": "TimeCapsule",
  "abi": [
    {
      "inputs": [],
      "stateMutability": "nonpayable",
      "type": "constructor"
    },
    {
      "anonymous": false,
      "inputs": [
        {
          "indexed": false,
          "internalType": "string",
          "name": "message",
          "type": "string"
        },
        {
          "indexed": false,
          "internalType": "uint256",
          "name": "timestamp",
          "type": "uint256"
        },
        {
          "indexed": false,
          "internalType": "uint256",
          "name": "blockTimestamp",
          "type": "uint256"
        }
      ],
      "name": "GetCapsule",
      "type": "event"
    },
    {
      "anonymous": false,
      "inputs": [
        {
          "indexed": false,
          "internalType": "uint256",
          "name": "id",
          "type": "uint256"
        },
        {
          "indexed": false,
          "internalType": "uint256",
          "name": "time",
          "type": "uint256"
        },
        {
          "indexed": false,
          "internalType": "uint256",
          "name": "blockTimestamp",
          "type": "uint256"
        }
      ],
      "name": "TimeCapsuleSubmited",
      "type": "event"
    },
    {
      "inputs": [
        {
          "internalType": "string",
          "name": "data",
          "type": "string"
        },
        {
          "internalType": "uint256",
          "name": "time",
          "type": "uint256"
        }
      ],
      "name": "submitTimeCapsule",
      "outputs": [],
      "stateMutability": "nonpayable",
      "type": "function"
    },
    {
      "inputs": [
        {
          "internalType": "uint256",
          "name": "id",
          "type": "uint256"
        }
      ],
      "name": "getTimeCapsule",
      "outputs": [],
      "stateMutability": "nonpayable",
      "type": "function"
    },
    {
      "inputs": [],
      "name": "retrieve",
      "outputs": [
        {
          "internalType": "uint256",
          "name": "",
          "type": "uint256"
        }
      ],
      "stateMutability": "view",
      "type": "function",
      "constant": true
    },
    {
      "inputs": [
        {
          "internalType": "bool",
          "name": "_switch",
          "type": "bool"
        }
      ],
      "name": "operationalSwitch",
      "outputs": [],
      "stateMutability": "nonpayable",
      "type": "function"
    }
  ],
  "bytecode": "0x608060405234801561001057600080fd5b50336000806101000a81548173ffffffffffffffffffffffffffffffffffffffff021916908373ffffffffffffffffffffffffffffffffffffffff16021790555060006001819055506001600060146101000a81548160ff0219169083151502179055506108af806100836000396000f3fe608060405234801561001057600080fd5b506004361061004c5760003560e01c80632e64cec1146100515780633ef0d72d1461006f5780637434c2521461009d578063f99db545146100cd575b600080fd5b610059610192565b6040518082815260200191505060405180910390f35b61009b6004803603602081101561008557600080fd5b810190808035906020019092919050505061019a565b005b6100cb600480360360208110156100b357600080fd5b8101908080351515906020019092919050505061045b565b005b610190600480360360408110156100e357600080fd5b810190808035906020019064010000000081111561010057600080fd5b82018360208201111561011257600080fd5b8035906020019184600183028401116401000000008311171561013457600080fd5b91908080601f016020809104026020016040519081016040528093929190818152602001838380828437600081840152601f19601f820116905080830192505050505050509192919290803590602001909291905050506104d0565b005b600042905090565b600060149054906101000a900460ff1661021c576040517f08c379a000000000000000000000000000000000000000000000000000000000815260040180806020018281038252601c8152602001807f436f6e7472616374206973206e6f74204f7065726174696f6e616c210000000081525060200191505060405180910390fd5b600073ffffffffffffffffffffffffffffffffffffffff166002600083815260200190815260200160002060020160009054906101000a900473ffffffffffffffffffffffffffffffffffffffff1673ffffffffffffffffffffffffffffffffffffffff1614156102f5576040517f08c379a00000000000000000000000000000000000000000000000000000000081526004018080602001828103825260198152602001807f4d65737361676520494420646f65736e27742065786973742e0000000000000081525060200191505060405180910390fd5b6002600082815260200190815260200160002060010154421015610364576040517f08c379a00000000000000000000000000000000000000000000000000000000081526004018080602001828103825260328152602001806108486032913960400191505060405180910390fd5b7feda398f1f942d57df137a3178ad9284a4f15d6a0baf3fa1e47ea7d6e52b82a2e6002600083815260200190815260200160002060000160026000848152602001908152602001600020600101544260405180806020018481526020018381526020018281038252858181546001816001161561010002031660029004815260200191508054600181600116156101000203166002900480156104485780601f1061041d57610100808354040283529160200191610448565b820191906000526020600020905b81548152906001019060200180831161042b57829003601f168201915b505094505050505060405180910390a150565b60008054906101000a900473ffffffffffffffffffffffffffffffffffffffff1673ffffffffffffffffffffffffffffffffffffffff163373ffffffffffffffffffffffffffffffffffffffff16146104b357600080fd5b80600060146101000a81548160ff02191690831515021790555050565b600060149054906101000a900460ff16610552576040517f08c379a000000000000000000000000000000000000000000000000000000000815260040180806020018281038252601c8152602001807f436f6e7472616374206973206e6f74204f7065726174696f6e616c210000000081525060200191505060405180910390fd5b600073ffffffffffffffffffffffffffffffffffffffff163373ffffffffffffffffffffffffffffffffffffffff1614156105f5576040517f08c379a00000000000000000000000000000000000000000000000000000000081526004018080602001828103825260168152602001807f546869732069732061203078302061646472657373210000000000000000000081525060200191505060405180910390fd5b60405180606001604052808381526020018281526020013373ffffffffffffffffffffffffffffffffffffffff16815250600260006001548152602001908152602001600020600082015181600001908051906020019061065792919061079c565b506020820151816001015560408201518160020160006101000a81548173ffffffffffffffffffffffffffffffffffffffff021916908373ffffffffffffffffffffffffffffffffffffffff1602179055509050507f735333faa48a154e7b446c1571c8d8d2bde2eabbb5d17e8a7867b53669b621b0600154824260405180848152602001838152602001828152602001935050505060405180910390a161070a6001805461071490919063ffffffff16565b6001819055505050565b600080828401905083811015610792576040517f08c379a000000000000000000000000000000000000000000000000000000000815260040180806020018281038252601b8152602001807f536166654d6174683a206164646974696f6e206f766572666c6f77000000000081525060200191505060405180910390fd5b8091505092915050565b828054600181600116156101000203166002900490600052602060002090601f0160209004810192826107d25760008555610819565b82601f106107eb57805160ff1916838001178555610819565b82800160010185558215610819579182015b828111156108185782518255916020019190600101906107fd565b5b509050610826919061082a565b5090565b5b8082111561084357600081600090555060010161082b565b509056fe4d6573736167652063616e27742062652072657665616c6564207965742c20697420697320696e6d6f7274616c697a656421a264697066735822122004ad28e31c137da0445f7625507de4b54b6ce0b1e3d4efccf6ecff0dd5d8606164736f6c63430007060033",
  "immutableReferences": {},
  "source": "// SPDX-License-Identifier: MIT\npragma solidity >=0.4.22 <0.8.0;\n\nimport \"@openzeppelin/contracts/math/SafeMath.sol\";\n\ncontract TimeCapsule {\n    \n    using SafeMath for uint256;\n\n    address owner;\n    bool isOperational;\n\n    struct Capsule {\n        string message;\n        uint256 timestamp;\n        address creatorAddress;\n    }\n\n    uint256 ID;\n    mapping(uint256 => Capsule) private capsules;\n\n    modifier onlyOwner{\n        require(msg.sender == owner);\n        _;\n    }\n\n    modifier requireOperational{\n        require(isOperational, \"Contract is not Operational!\");\n        _;\n    }\n\n    event TimeCapsuleSubmited(uint256 id, uint256 time, uint256 blockTimestamp);\n    event GetCapsule(string message, uint256 timestamp, uint256 blockTimestamp);\n\n    constructor() {\n        owner = msg.sender;\n        ID = 0;\n        isOperational = true;\n    }\n\n    function submitTimeCapsule(string memory data, uint256 time) requireOperational external {\n        require(msg.sender != address(0), \"This is a 0x0 address!\");\n        capsules[ID] = Capsule({\n            message: data,\n            timestamp: time,\n            creatorAddress: msg.sender\n        });\n        \n        emit TimeCapsuleSubmited(ID, time, block.timestamp);\n        ID = ID.add(1);\n    }\n\n    function getTimeCapsule(uint256 id) requireOperational external {\n        require(capsules[id].creatorAddress != address(0), \"Message ID doesn't exist.\");\n        require(block.timestamp >= capsules[id].timestamp, \"Message can't be revealed yet, it is inmortalized!\");\n        emit GetCapsule(capsules[id].message, capsules[id].timestamp, block.timestamp);\n    }\n    \n    function retrieve() external view returns(uint256){\n        return block.timestamp;\n    }\n\n    //Change contract state Operational/Non-Operational\n    function operationalSwitch(bool _switch) onlyOwner external {\n            isOperational = _switch;\n    }\n}\n",
  "sourcePath": "/home/nutcracker17/Blockchain/ethereum-time-capsules/contracts/TimeCapsule.sol",
  "compiler": {
    "name": "solc",
    "version": "0.7.6+commit.7338295f.Emscripten.clang"
  },
  "schemaVersion": "3.3.0",
  "updatedAt": "2021-03-24T20:48:06.926Z",
  "networkType": "ethereum",
  "devdoc": {
    "kind": "dev",
    "methods": {},
    "version": 1
  },
  "userdoc": {
    "kind": "user",
    "methods": {},
    "version": 1
  }
}