{
  "contractName": "TimeCapsule",
  "abi": [
    {
      "inputs": [],
      "stateMutability": "nonpayable",
      "type": "constructor"
    },
    {
      "anonymous": false,
      "inputs": [
        {
          "indexed": false,
          "internalType": "uint256",
          "name": "id",
          "type": "uint256"
        },
        {
          "indexed": false,
          "internalType": "uint256",
          "name": "time",
          "type": "uint256"
        },
        {
          "indexed": false,
          "internalType": "uint256",
          "name": "blockTimestamp",
          "type": "uint256"
        }
      ],
      "name": "TimeCapsuleSubmited",
      "type": "event"
    },
    {
      "inputs": [
        {
          "internalType": "string",
          "name": "data",
          "type": "string"
        },
        {
          "internalType": "uint256",
          "name": "time",
          "type": "uint256"
        }
      ],
      "name": "submitTimeCapsule",
      "outputs": [],
      "stateMutability": "nonpayable",
      "type": "function"
    },
    {
      "inputs": [
        {
          "internalType": "uint256",
          "name": "id",
          "type": "uint256"
        }
      ],
      "name": "getTimeCapsule",
      "outputs": [
        {
          "internalType": "string",
          "name": "",
          "type": "string"
        }
      ],
      "stateMutability": "view",
      "type": "function",
      "constant": true
    },
    {
      "inputs": [],
      "name": "retrieve",
      "outputs": [
        {
          "internalType": "uint256",
          "name": "",
          "type": "uint256"
        }
      ],
      "stateMutability": "view",
      "type": "function",
      "constant": true
    },
    {
      "inputs": [
        {
          "internalType": "bool",
          "name": "_switch",
          "type": "bool"
        }
      ],
      "name": "operationalSwitch",
      "outputs": [],
      "stateMutability": "nonpayable",
      "type": "function"
    }
  ],
  "bytecode": "0x608060405234801561001057600080fd5b50336000806101000a81548173ffffffffffffffffffffffffffffffffffffffff021916908373ffffffffffffffffffffffffffffffffffffffff16021790555060006001819055506001600060146101000a81548160ff0219169083151502179055506108e9806100836000396000f3fe608060405234801561001057600080fd5b506004361061004c5760003560e01c80632e64cec1146100515780633ef0d72d1461006f5780637434c25214610116578063f99db54514610146575b600080fd5b61005961020b565b6040518082815260200191505060405180910390f35b61009b6004803603602081101561008557600080fd5b8101908080359060200190929190505050610213565b6040518080602001828103825283818151815260200191508051906020019080838360005b838110156100db5780820151818401526020810190506100c0565b50505050905090810190601f1680156101085780820380516001836020036101000a031916815260200191505b509250505060405180910390f35b6101446004803603602081101561012c57600080fd5b81019080803515159060200190929190505050610495565b005b6102096004803603604081101561015c57600080fd5b810190808035906020019064010000000081111561017957600080fd5b82018360208201111561018b57600080fd5b803590602001918460018302840111640100000000831117156101ad57600080fd5b91908080601f016020809104026020016040519081016040528093929190818152602001838380828437600081840152601f19601f8201169050808301925050505050505091929192908035906020019092919050505061050a565b005b600042905090565b6060600060149054906101000a900460ff16610297576040517f08c379a000000000000000000000000000000000000000000000000000000000815260040180806020018281038252601c8152602001807f436f6e7472616374206973206e6f74204f7065726174696f6e616c210000000081525060200191505060405180910390fd5b600073ffffffffffffffffffffffffffffffffffffffff166002600084815260200190815260200160002060020160009054906101000a900473ffffffffffffffffffffffffffffffffffffffff1673ffffffffffffffffffffffffffffffffffffffff161415610370576040517f08c379a00000000000000000000000000000000000000000000000000000000081526004018080602001828103825260198152602001807f4d65737361676520494420646f65736e27742065786973742e0000000000000081525060200191505060405180910390fd5b60026000838152602001908152602001600020600101544210156103df576040517f08c379a00000000000000000000000000000000000000000000000000000000081526004018080602001828103825260328152602001806108826032913960400191505060405180910390fd5b600260008381526020019081526020016000206000018054600181600116156101000203166002900480601f0160208091040260200160405190810160405280929190818152602001828054600181600116156101000203166002900480156104895780601f1061045e57610100808354040283529160200191610489565b820191906000526020600020905b81548152906001019060200180831161046c57829003601f168201915b50505050509050919050565b60008054906101000a900473ffffffffffffffffffffffffffffffffffffffff1673ffffffffffffffffffffffffffffffffffffffff163373ffffffffffffffffffffffffffffffffffffffff16146104ed57600080fd5b80600060146101000a81548160ff02191690831515021790555050565b600060149054906101000a900460ff1661058c576040517f08c379a000000000000000000000000000000000000000000000000000000000815260040180806020018281038252601c8152602001807f436f6e7472616374206973206e6f74204f7065726174696f6e616c210000000081525060200191505060405180910390fd5b600073ffffffffffffffffffffffffffffffffffffffff163373ffffffffffffffffffffffffffffffffffffffff16141561062f576040517f08c379a00000000000000000000000000000000000000000000000000000000081526004018080602001828103825260168152602001807f546869732069732061203078302061646472657373210000000000000000000081525060200191505060405180910390fd5b60405180606001604052808381526020018281526020013373ffffffffffffffffffffffffffffffffffffffff1681525060026000600154815260200190815260200160002060008201518160000190805190602001906106919291906107d6565b506020820151816001015560408201518160020160006101000a81548173ffffffffffffffffffffffffffffffffffffffff021916908373ffffffffffffffffffffffffffffffffffffffff1602179055509050507f735333faa48a154e7b446c1571c8d8d2bde2eabbb5d17e8a7867b53669b621b0600154824260405180848152602001838152602001828152602001935050505060405180910390a16107446001805461074e90919063ffffffff16565b6001819055505050565b6000808284019050838110156107cc576040517f08c379a000000000000000000000000000000000000000000000000000000000815260040180806020018281038252601b8152602001807f536166654d6174683a206164646974696f6e206f766572666c6f77000000000081525060200191505060405180910390fd5b8091505092915050565b828054600181600116156101000203166002900490600052602060002090601f01602090048101928261080c5760008555610853565b82601f1061082557805160ff1916838001178555610853565b82800160010185558215610853579182015b82811115610852578251825591602001919060010190610837565b5b5090506108609190610864565b5090565b5b8082111561087d576000816000905550600101610865565b509056fe4d6573736167652063616e27742062652072657665616c6564207965742c20697420697320696e6d6f7274616c697a656421a2646970667358221220759cff751f356f2ef0f6a004e29e034d5cb28d15caceb9240f1bb2952182dca464736f6c63430007060033",
  "immutableReferences": {},
  "source": "// SPDX-License-Identifier: MIT\npragma solidity >=0.4.22 <0.8.0;\n\nimport \"@openzeppelin/contracts/math/SafeMath.sol\";\n\ncontract TimeCapsule {\n    \n    using SafeMath for uint256;\n\n    address owner;\n    bool isOperational;\n\n    struct Capsule {\n        string message;\n        uint256 timestamp;\n        address creatorAddress;\n    }\n\n    uint256 ID;\n    mapping(uint256 => Capsule) private capsules;\n\n    modifier onlyOwner{\n        require(msg.sender == owner);\n        _;\n    }\n\n    modifier requireOperational{\n        require(isOperational, \"Contract is not Operational!\");\n        _;\n    }\n\n    event TimeCapsuleSubmited(uint256 id, uint256 time, uint256 blockTimestamp);\n\n    constructor() {\n        owner = msg.sender;\n        ID = 0;\n        isOperational = true;\n    }\n\n    function submitTimeCapsule(string memory data, uint256 time) requireOperational external {\n        require(msg.sender != address(0), \"This is a 0x0 address!\");\n        capsules[ID] = Capsule({\n            message: data,\n            timestamp: time,\n            creatorAddress: msg.sender\n        });\n        \n        emit TimeCapsuleSubmited(ID, time, block.timestamp);\n        ID = ID.add(1);\n    }\n\n    function getTimeCapsule(uint256 id) requireOperational external view returns(string memory) {\n        require(capsules[id].creatorAddress != address(0), \"Message ID doesn't exist.\");\n        require(block.timestamp >= capsules[id].timestamp, \"Message can't be revealed yet, it is inmortalized!\");\n        return capsules[id].message;\n    }\n    \n    function retrieve() external view returns(uint256){\n        return block.timestamp;\n    }\n\n    //Change contract state Operational/Non-Operational\n    function operationalSwitch(bool _switch) onlyOwner external {\n            isOperational = _switch;\n    }\n}\n",
  "sourcePath": "/home/nutcracker17/Blockchain/ethereum-time-capsules/contracts/TimeCapsule.sol",
  "compiler": {
    "name": "solc",
    "version": "0.7.6+commit.7338295f.Emscripten.clang"
  },
  "schemaVersion": "3.3.0",
  "updatedAt": "2021-03-24T21:34:54.797Z",
  "networkType": "ethereum",
  "devdoc": {
    "kind": "dev",
    "methods": {},
    "version": 1
  },
  "userdoc": {
    "kind": "user",
    "methods": {},
    "version": 1
  }
}